:020000040000FA
:020000002828AE
:040002000034003492
:0A0006000830A0002F30A1000330E5
:10001000A200A00B0C28A10B0E28A20B0928102867
:10002000000008000000CF30A0000830A100A00BA5
:100030001A28A10B17281C2808000000C730A000B0
:100040000130A100A00B2528A10B22282728080099
:100050000000831603139B016C308F00850186011D
:1000600083120313850186011D2005108510383089
:100070008600051085141D2085101D200F30860078
:10008000051085141D2085101D204530860005149F
:100090008514122085101220643086000514851402
:1000A0001220851012207730860005148514122046
:1000B00085101220693086000514851412208510E1
:1000C00012206E308600051485141220851012202F
:0400D000000068289C
:02400E00503F21
:02401000FC3F73
:00000001FF
